:020000040000FA
:100000009CEF01F00000000006EF00F0D8CFE5FF04
:10001000E0CFE5FFE56EF3CFE5FFF4CFE5FFE9CFF5
:10002000E5FFEACFE5FFFACFE5FFFBCFE5FFD9CF4C
:10003000E5FFE1CFD9FF00C0E5FF01C0E5FF006AA1
:10004000F2B4002A0050010A01E044D000017651C8
:1000500000017711D8B43ED00001743F02D00001F6
:10006000752B000E0001755D03E10A0E0001745D41
:1000700004E30001746B0001756B000E0001755DF7
:1000800003E10A0E0001745D1EE200017551E56E88
:1000900000017451E56E000EE56E020EE56EB2ECE5
:1000A00000F0006EF3CF01F0040EE126600E002692
:1000B000000E012200C0E9FF01C0EAFFEECF00F010
:1000C000EFCF01F002D0006A016A00508C6E82EC22
:1000D00001F0F294006AF2B2002A0050010A12E123
:1000E0000B0E0001786F0001796BDC0E00017A6F56
:1000F00000017B6B000176510001771102E14FECAA
:1001000001F0F292006AF0B0002A0050010A12E1F8
:10011000C20E0001786F0001796BF70E00017A6F53
:1001200000017B6B000176510001771102E14FEC79
:1001300001F0F090E4CF01F0E4CF00F0E4CFD9FF7C
:10014000E4CFFBFFE4CFFAFFE4CFEAFFE4CFE9FF1F
:10015000E4CFF4FFE4CFF3FFE450E4CFE0FFE4CFDB
:10016000D8FF1000D9CFE5FFE1CFD9FF00C0E5FFF0
:1001700001C0E5FF02C0E5FF03C0E5FF020EDBCFD3
:1001800000F0030EDBCF01F0040EDBCF02F0050E12
:10019000DBCF03F0005000017C6F01507D6F0250F7
:1001A00000017E6F03507F6F00017C5100017E03D0
:1001B000F4CF01F0F3CF00F000500001806F015048
:1001C000816F00017C5100017F03F3CF00F000013B
:1001D0007D5100017E03F3CF01F0015000260001A4
:1001E000815100260050816F81C0F3FF8051E4CF20
:1001F00003F0E4CF02F0E4CF01F0E4CF00F0E4CF6D
:10020000D9FF1200D9CFE5FFE1CFD9FF3F0E0001A2
:10021000606F0001616B060E0001626F0001636B8D
:100220005B0E0001646F0001656B4F0E0001666F8D
:100230000001676B660E0001686F0001696B6D0E4F
:1002400000016A6F00016B6B7D0E00016C6F000195
:100250006D6B070E00016E6F00016F6B7F0E00016A
:10026000706F0001716B6F0E0001726F0001736B94
:10027000E4CFD9FF1200D9CFE5FFE1CFD9FFF28E4D
:10028000F28CD08EF294F28AF184F292F090F08C9B
:10029000F288F086F18CF18AE4CFD9FF1200D9CF31
:1002A000E5FFE1CFD9FF0001746B0001756B010E12
:1002B0000001766F0001776B82EC01F0E4CFD9FF8B
:1002C00012000001766B0001776B91EC01F03BECC2
:1002D00001F072EC01F002EC01F060C08CFF040050
:1002E000FED71200D9CFE5FFE1CFD9FFD59ED59C2F
:1002F000D59AD598D596D550F80B0409D56EE4CF8C
:10030000D9FF1200D9CFE5FFE1CFD9FFD59E00017B
:100310007851D76E00017A51D66ED58EE4CFD9FFD1
:100320001200D9CFE5FFE1CFD9FFF18E956A938016
:100330009382E4CFD9FF120011EEFFF021EEFFF01F
:10034000F86AA68EA69C61EC01F0FFD701000400BC
:0A035000000074000000040000002B
:020000040030CA
:010001000CF2
:010006008178
:00000001FF
