:020000040000FA
:0600000050EF01F00000CA
:0800080006EF00F0D8CFE5FF80
:10001000E0CFE5FFE56EF3CFE5FFF4CFE5FFE9CFF5
:10002000E5FFEACFE5FFFACFE5FFFBCFE5FFD9CF4C
:10003000E5FFE1CFD9FF00C0E5FF01C0E5FF006AA1
:10004000F2B4002A0050010A30E160C000F061C043
:1000500001F00050010F0001606F000E012000014F
:10006000616F000E0001615D03E10A0E0001605D39
:1000700004E30001606B0001616B00016151E56EFA
:1000800000016051E56E9FEC00F0006EF3CF01F0CF
:10009000E652E65200508C6ED59E00016251D76E3A
:1000A00000016451D66ED58EF294006AF2B2002A35
:1000B0000050010A13E10B0E0001626F0001636B37
:1000C000DC0E0001646F0001656BD59E000162517A
:1000D000D76E00016451D66ED58EF292006AF0B0F0
:1000E000002A0050010A13E1C20E0001626F0001F4
:1000F000636BF70E0001646F0001656BD59E000114
:100100006251D76E00016451D66ED58EF090E4CF67
:1001100001F0E4CF00F0E4CFD9FFE4CFFBFFE4CF60
:10012000FAFFE4CFEAFFE4CFE9FFE4CFF4FFE4CF46
:10013000F3FFE450E4CFE0FFE4CFD8FF1000D9CFC5
:10014000E5FFE1CFD9FF00C0E5FF01C0E5FF02C038
:10015000E5FF03C0E5FF020EDBCF00F0030EDBCFAF
:1001600001F0D88001AED890026A023602500AE14E
:100170000150800F800F02E10A0E005C036A033613
:10018000035003E0F36AE86A46D00250D8A443D093
:100190000350D8A440D0FA6AFB6A0034FA36E83437
:1001A000FA36FC0BB40FE56E010EFA22000EFB22AC
:1001B000E450F96EEEEF00F0F1EF00F0F4EF00F034
:1001C000F7EF00F0FAEF00F0FDEF00F000EF01F0C4
:1001D00003EF01F006EF01F009EF01F0F36A3F0EC3
:1001E0001AD0F36A060E17D0F36A5B0E14D0F36AC6
:1001F0004F0E11D0F36A660E0ED0F36A6D0E0BD05F
:10020000F36A7D0E08D0F36A070E05D0F36A7F0EFD
:1002100002D0F36A6F0EE4CF03F0E4CF02F0E4CF34
:1002200001F0E4CF00F0E4CFD9FF120040EC01F080
:10023000040ED56E2CEC01F0000EE56E040EE56E9A
:100240009FEC00F0006EF3CF01F0E652E652005052
:100250008C6E0400FED71200D9CFE5FFE1CFD9FFA5
:10026000F28EF28CD08EF294F28AF184F292F090B7
:10027000F08CF288F086F18CF18AE4CFD9FF12007D
:10028000D9CFE5FFE1CFD9FF0F0EC112F19E956ADC
:10029000836A9380938281808182E4CFD9FF1200A8
:1002A00011EEFFF021EEFFF0F86AA68EA69C16EC88
:1002B00001F0FFD701000400000060000000020010
:0202C00000003C
:020000040030CA
:0100010008F6
:010006008178
:00000001FF
